:100000000C94DB020C9403030C9403030C94030381
:100010000C9403030C9403030C9403030C94030348
:100020000C9403030C9403030C9403030C94030338
:100030000C9403030C9403030C9403030C94030328
:100040000C9442090C9403030C9403030C940303D3
:100050000C9403030C9403030C9403030C94030308
:100060000C9403030C94030300000000003E5B4F5C
:100070005B3E3E6B4F6B3E1C3E7C3E1C183C7E3C08
:10008000181C577D571C1C5E7F5E1C00183C180016
:10009000FFE7C3E7FF0018241800FFE7DBE7FF30A6
:1000A000483A060E2629792926407F050507407F14
:1000B00005253F5A3CE73C5A7F3E1C1C08081C1C87
:1000C0003E7F14227F22145F5F005F5F06097F017D
:1000D0007F006689956A606060606094A2FFA29468
:1000E00008047E040810207E201008082A1C080836
:1000F0001C2A08081E101010100C1E0C1E0C303884
:100100003E3830060E3E0E06000000000000005F84
:1001100000000007000700147F147F14242A7F2AA0
:100120001223130864623649562050000807030062
:10013000001C2241000041221C002A1C7F1C2A08AE
:10014000083E080800807030000808080808000011
:1001500060600020100804023E5149453E00427F85
:10016000400072494949462141494D331814127FD4
:100170001027454545393C4A494931412111090774
:100180003649494936464949291E000014000000F5
:1001900040340000000814224114141414140041C7
:1001A00022140802015909063E415D594E7C121184
:1001B000127C7F494949363E414141227F414141BC
:1001C0003E7F494949417F090909013E4141517337
:1001D0007F0808087F00417F41002040413F017FA8
:1001E000081422417F404040407F021C027F7F0470
:1001F00008107F3E4141413E7F090909063E4151B9
:10020000215E7F09192946264949493203017F01A8
:10021000033F4040403F1F2040201F3F4038403FA9
:10022000631408146303047804036159494D4300BF
:100230007F4141410204081020004141417F0402F6
:10024000010204404040404000030708002054548D
:1002500078407F284444383844444428384444286B
:100260007F385454541800087E090218A4A49C78BE
:100270007F0804047800447D40002040403D007F1A
:100280001028440000417F40007C047804787C08FA
:100290000404783844444438FC18242418182424CE
:1002A00018FC7C08040408485454542404043F44B3
:1002B000243C4040207C1C2040201C3C4030403CE2
:1002C00044281028444C9090907C4464544C440042
:1002D00008364100000077000000413608000201A6
:1002E0000204023C2623263C1EA1A161123A404092
:1002F000207A38545455592155557941225454780F
:1003000042215554784020545579400C1E527212A7
:100310003955555559395454545939555454580030
:1003200000457C410002457D420001457C407D1234
:1003300011127DF0282528F07C5455450020545496
:100340007C547C0A097F4932494949323A44444441
:100350003A324A4848303A4141217A3A424020787C
:10036000009DA0A07D3D4242423D3D4040403D3C7D
:1003700024FF2424487E4943662B2FFC2F2BFF09A2
:1003800029F620C0887E0903205454794100004496
:100390007D413048484A32384040227A007A0A0A81
:1003A000727D0D19317D2629292F282629292926F4
:1003B00030484D4020380808080808080808382F39
:1003C00010C8ACBA2F102834FA00007B00000814C3
:1003D0002A142222142A1408AA005500AAAA55AAEF
:1003E00055AA000000FF00101010FF00141414FFA5
:1003F000001010FF00FF1010F010F0141414FC0097
:100400001414F700FF0000FF00FF1414F404FC14A0
:100410001417101F10101F101F1414141F00101099
:1004200010F0000000001F101010101F101010100E
:10043000F010000000FF101010101010101010FF2E
:1004400010000000FF140000FF00FF00001F101745
:100450000000FC04F414141710171414F404F4002E
:1004600000FF00F714141414141414F700F71414F4
:1004700014171410101F101F141414F4141010F07B
:1004800010F000001F101F0000001F14000000FCEF
:10049000140000F010F01010FF10FF141414FF14DB
:1004A0001010101F00000000F010FFFFFFFFFFF012
:1004B000F0F0F0F0FFFFFF0000000000FFFF0F0F63
:1004C0000F0F0F3844443844FC4A4A4A347E020233
:1004D0000606027E027E0263554941633844443C6D
:1004E00004407E201E2006027E020299A5E7A599FF
:1004F0001C2A492A1C4C7201724C304A4D4D303036
:1005000048784830BC625A463D3E494949007E0120
:1005100001017E2A2A2A2A2A44445F444440514A3F
:10052000444040444A51400000FF0103E080FF0086
:100530000008086B6B083612362436060F090F06C2
:10054000000018180000001010003040FF010100EA
:100550001F01011E00191D1712003C3C3C3C00000D
:100560000000000000000800020100000304070072
:10057000000000000000000102040810204080017B
:1005800002040810200102040810200404040404DA
:100590000404040202020202020303030303030031
:1005A000000000250028002B000000000024002788
:1005B000002A0000780311241FBECFEFD8E0DEBF71
:1005C000CDBF11E0A0E0B1E0EAEBFAE102C0059096
:1005D0000D92A234B107D9F721E0A2E4B1E001C045
:1005E0001D92A439B207E1F715E0C6EBD5E004C0CF
:1005F0002297FE010E94B00BC43BD107C9F70E94AD
:10060000CA0A0C945B0D0C94000064E086E691E04D
:100610000E94C40860910C0170910D01660F771F54
:10062000660F771F40910A0150910B01440F551F2F
:10063000440F551F20E030E080E090E0FC01EA5AD2
:10064000FE4F71836083FC01EA5BFE4F5183408360
:100650002F5F3F4F02962830310584F330934501D8
:100660002093440110924301109242018EE00E94B7
:10067000120A0C94010B880F991FDC01AA5ABE4F75
:10068000660F771FFB01EA5AFE4F4D915C91208166
:1006900031814217530771F4FC01EA5BFE4FDB0125
:1006A000AA5BBE4F81E0408151812D913C91421760
:1006B000530709F080E008950F931F93CF93DF93C2
:1006C0008C01C0E0D0E00C171D0731F0BE01C8015D
:1006D0000E943B03811106C02196C830D10599F7CD
:1006E00080E001C081E0DF91CF911F910F910895CB
:1006F00020910A0140910C0160910E0186E691E083
:100700000C94C808EF92FF920F931F93CF93DF933F
:1007100020914201309143013093450120934401DF
:10072000C901019668E070E00E943A0B9093430182
:1007300080934201220F331FF901EA5BFE4F408193
:100740005181F901EA5AFE4F6081718121E030E068
:1007500086E691E00E94DC0786E691E00E9432097D
:1007600064E670E080E090E00E94AF09C091420131
:10077000D0914301CE010E945C03811111C0CC0FC6
:10078000DD1FFE01EA5BFE4F40815181CA5ADE4FF8
:100790006881798120E030E086E691E00E94DC0704
:1007A000CAE0D0E064E070E080E090E00E94090BD5
:1007B000009142011091430161307105810591055D
:1007C000A9F12CF4672B682B692B71F0D4C062302F
:1007D00071058105910509F46AC0633071058105D1
:1007E000910509F486C0C7C0E0914401F09145012C
:1007F000EE0FFF1FEA5AFE4FE080F1808FEFE81600
:10080000F806CCF186E691E00E94D4070197E8163D
:10081000F90604F5E0914401F0914501EE0FFF1F48
:10082000EA5AFE4F80819181019627C0E0914401F0
:10083000F0914501EE0FFF1FEA5AFE4FE080F18074
:100840001E141F04C4F486E691E00E94D4078E159E
:100850009F052CF486E691E00E94D4070AC0E0913F
:100860004401F0914501EE0FFF1FEA5AFE4F8081CF
:100870009181019702C080E090E0F801EE0FFF1F28
:10088000EA5AFE4F91838083E0914401F091450143
:10089000EE0FFF1FEA5BFE4F80819181E0914201E4
:1008A000F0914301EE0FFF1FEA5BFE4F62C0E09143
:1008B0004401F0914501EE0FFF1FEA5BFE4FE0801F
:1008C000F1808FEFE816F806CCF186E691E00E9401
:1008D000D8070197E816F90604F5E0914401F09174
:1008E0004501EE0FFF1FEA5BFE4F8081918101966B
:1008F00027C0E0914401F0914501EE0FFF1FEA5B34
:10090000FE4FE080F1801E141F04C4F486E691E0DF
:100910000E94D8078E159F052CF486E691E00E9470
:10092000D8070AC0E0914401F0914501EE0FFF1F86
:10093000EA5BFE4F80819181019702C080E090E0E8
:10094000F801EE0FFF1FEA5BFE4F91838083E09179
:100950004401F0914501EE0FFF1FEA5AFE4F8081DE
:100960009181E0914201F0914301EE0FFF1FEA5A9D
:10097000FE4F9183808380914201909143010E94B8
:100980005C03882319F0219709F00CCFDF91CF91F8
:100990001F910F91FF90EF900895CF93CFB7F894E8
:1009A00080918601811127C0E5E9F5E08491E1E8B5
:1009B000F5E09491E82FF0E0EE0FFF1FE755FA4FB6
:1009C000A591B4918C91892321F461E08AE00E9481
:1009D000910A61E08AE00E94580A8CB580618CBD62
:1009E0008CB580648CBD61E08DE00E94580A61E0A6
:1009F0008BE00E94580A809186018F5F8093860168
:100A0000CFBFCF9108952F923F924F925F926F92F6
:100A10007F928F929F92AF92BF92CF92DF92EF928E
:100A2000FF920F931F93CF93DF9300D000D0CDB7E9
:100A3000DEB74C017C836B836A015901C8018701D1
:100A4000AC014C195D0957FF03C0519541955109FF
:100A500095016B817C81261B370B37FF03C03195D5
:100A60002195310922242394312C2417350714F0C1
:100A7000212C312C2114310459F03A2D2B2D5C01FD
:100A8000832F922F3B812C81DC82CB82C32ED22EEE
:100A9000AB81BC81AA16BB065CF43C2D2D2D6C01EC
:100AA000832F922F3B812C81BC82AB82A32EB22E4E
:100AB0002501EB81FC814E1A5F0A3C016C187D0810
:100AC00077FE03C0719461947108720157FE03C0F0
:100AD000FFEFEF1AFF0AF594E794C816D9062CF435
:100AE00021E030E03A83298324C06FEF7FEF7A83DF
:100AF00069831FC0D401ED91FC910480F581E02D44
:100B0000980121143104D9F04B815C81B601C401F4
:100B10000995E618F708F7FE06C0E981FA81CE0EBE
:100B2000DF1EE40CF51C2B813C812F5F3F4F3C8383
:100B30002B836B817C81A616B706E4F604C0A60160
:100B40006B817C81E4CF0F900F900F900F90DF911D
:100B5000CF911F910F91FF90EF90DF90CF90BF90BA
:100B6000AF909F908F907F906F905F904F903F904D
:100B70002F9008956F927F928F929F92AF92BF9223
:100B8000CF92DF92EF92FF920F931F93CF93DF9359
:100B9000EC015B016A0139014801E881F9810284B5
:100BA000F385E02D87010995E881F981A601480DBB
:100BB000591D415051090284F385E02D9301B5017F
:100BC000CE010995E881F9810084F185E02D940139
:100BD000A601B501CE010995E881F981B501660D3F
:100BE000771D615071090084F185E02D9401A60103
:100BF000CE010995DF91CF911F910F91FF90EF905A
:100C0000DF90CF90BF90AF909F908F907F906F902C
:100C10000895EF92FF920F931F93DC01ED91FC91E9
:100C2000240F351F215031090680F781E02D78010E
:100C300089019B0109951F910F91FF90EF900895F5
:100C4000EF92FF920F931F93DC01ED91FC91260F21
:100C5000371F215031090680F781E02D78018A0184
:100C600009951F910F91FF90EF9008956F927F92D9
:100C70008F929F92AF92BF92CF92DF92EF92FF92AC
:100C80000F931F93CF93DF935C014A0169013801F1
:100C9000EB01C60ED71ECC15DD0574F4D501ED9120
:100CA000FC910084F185E02D87019301A401BE0130
:100CB000C50109952196EFCFDF91CF911F910F913B
:100CC000FF90EF90DF90CF90BF90AF909F908F906C
:100CD0007F906F900895EF92FF920F931F93DC0126
:100CE000ED91FC9111971A960D911C911B971896F6
:100CF0002D913C9119970684F785E02D7B0140E00A
:100D000050E060E070E009951F910F91FF90EF9027
:100D100008950895FC011382128285E191E0918388
:100D20008083758364835783468371876087538785
:100D30004287158A158614861786168621E0248B2D
:100D40008FEF9FEF938B828B918B808B268B0895F7
:100D50002F923F924F925F926F927F928F929F92CB
:100D6000AF92BF92CF92DF92EF92FF920F931F93B9
:100D7000CF93DF93CDB7DEB72C970FB6F894DEBFD5
:100D80000FBECDBF9C878B873A0118870F83FA86E9
:100D9000E986CD82DC0118968D919C911997681790
:100DA00079070CF094C01A968D919C911B97481767
:100DB00059070CF08CC08C2C912CCB01B6E0CB9E4B
:100DC000800D911D1124181619060CF080C0C40165
:100DD00053E0880F991F5A95E1F7860D971D181655
:100DE00019060CF074C0F5E02F9F200111245B015F
:100DF0006B011C82920128593F4F2901461A570A5C
:100E00003C81353031F0F201EA0DFB1D44914B83FA
:100E100001C01B827A82698213011E828B8180FF4E
:100E200013C0AB85BC85ED91FC91BD81B13031F42F
:100E30000480F581E02D2F81388519C00684F7855F
:100E4000E02DEF80F8841EC0E985FA852F81388572
:100E5000E217F307F9F0AB85BC85ED91FC91BD81FC
:100E6000B13059F40480F581E02D29853A85A1013E
:100E7000B5018B859C8509950DC00684F785E02D0D
:100E8000E984FA848401940149815A81B6018B85F1
:100E90009C850995EB81E695EB83FE81FF5FFE83E0
:100EA00029813A81280D391D3A8329833FEF231A7E
:100EB000330AF83009F0B2CF4C814F5F4C83C80C35
:100EC000D91C8FEFA81AB80A463009F099CF2C9692
:100ED0000FB6F894DEBF0FBECDBFDF91CF911F914B
:100EE0000F91FF90EF90DF90CF90BF90AF909F90C9
:100EF0008F907F906F905F904F903F902F900895CC
:100F0000CF92EF92FF920F931F93CF93DF93EC0159
:100F1000262F6A3049F42C898E859F8538E0239FDF
:100F2000800D911D112432C06D30A1F1EA88FB883B
:100F3000088919894E855F856C857D85CC880E94DE
:100F4000A8062C89422F50E08C859D8536E0239F92
:100F5000800D911D11249D878C872E892223D1F02D
:100F60006AEF64039001659F300D112468857985CF
:100F7000260F371F281739076CF463E0440F551FFD
:100F80006A95E1F78E859F85840F951F9F878E87D1
:100F90001D861C8681E090E0DF91CF911F910F911B
:100FA000FF90EF90CF900895FC0180859185089582
:100FB000FC01828593850895FF920F931F93CF9331
:100FC000DF93FC01742F8589882391F0823020F013
:100FD00090859150961B692F9FEF980F923018F4CF
:100FE00072857150741B80FF03C0862F672F782F86
:100FF00067FD7BC0462F552747FD5095C481D5819D
:101000004C175D070CF071C0872F90E0A681B78167
:101010008A179B070CF069C0F38CA3E055954795A0
:10102000AA95E1F7B3E095958795BA95E1F7F89E13
:101030008001F99E100D1124A48DB58DA40FB51F4C
:10104000A00FB11F1C91562F5770472F4770A68DC8
:10105000B78DA10FB11D8C91823018F097E0951BD0
:10106000592F9FEF980F923018F497E0941B492F57
:1010700080FF03C0852F542F482F812F6F2D0E9492
:101080002E0B8F9D10191124652F98E0199F600D6C
:101090001124742F98E0899F700D1124472F50E080
:1010A00083E0559547958A95E1F7C49FC001C59F98
:1010B000900DD49F900D1124860F911D67FD9A9578
:1010C000008CF18DE02DE80FF91F777081E090E042
:1010D000072E01C0880F0A94EAF74081232B11F0F4
:1010E000842B02C0809584238083DF91CF911F9150
:1010F0000F91FF900895FC01428D50E0672B19F08D
:101100006FEF70E002C060E070E0FC01808D918DB7
:101110000C944C0D8EBD00000DB407FEFDCF8EB5B6
:101120000895EF92FF920F931F93CF93DF93EC01FB
:10113000062FE42E60E08F890E94910AFF24FA9422
:10114000F00E1A8D1F0D1850802F0E948A0809304A
:1011500030F4E88DF98DE10FF11D808101C08E2DF5
:101160000E948A08F11678F361E08F89DF91CF91B0
:101170001F910F91FF90EF900C94910A462F21E060
:1011800042276CE00C949108462F6AE00C94910879
:10119000FF920F931F93CF93DF93EC01062F142F31
:1011A000F22E88E0289FA001112488E0189FB0014A
:1011B0001124CE010E948A068DE291E099838883F2
:1011C0000F8BF19EF02C11241B8F8F2D880F880F11
:1011D000880F8A8F90E00E94C30B998F888F0F2D04
:1011E00010E0C8010E94C30B9F8F8E8FC8010E9420
:1011F000C30B9D8F8C8F80E090E08F1560F4EC8D99
:10120000FD8DE80FF91F8083EE8DFF8DE80FF91F2C
:1012100010820196F2CF0E94CD0461E08F890E9476
:10122000580A60E070E0CE010E947B0840E06FE069
:10123000CE010E94910847E06BE0CE010E94910828
:1012400040E069E0CE010E94910860E0CE010E947A
:10125000BE0867E0CE01DF91CF911F910F91FF9003
:101260000C94C4081F93CF93DF93EC0118E040E087
:10127000612FCE010E9491081150C9F7DF91CF91E3
:101280001F9108951F920F920FB60F9211242F9362
:101290003F938F939F93AF93BF93809188019091D9
:1012A0008901A0918A01B0918B013091870123E0DF
:1012B000230F2D3720F40196A11DB11D05C026E88E
:1012C000230F0296A11DB11D2093870180938801F1
:1012D00090938901A0938A01B0938B0180918C0136
:1012E00090918D01A0918E01B0918F010196A11D69
:1012F000B11D80938C0190938D01A0938E01B093CA
:101300008F01BF91AF919F918F913F912F910F903E
:101310000FBE0F901F9018953FB7F89480918C01E5
:1013200090918D01A0918E01B0918F0126B5A89B5F
:1013300005C02F3F19F00196A11DB11D3FBF6627C3
:10134000782F892F9A2F620F711D811D911D42E008
:10135000660F771F881F991F4A95D1F70895CF927E
:10136000DF92EF92FF92CF93DF936B017C010E949B
:101370008C09EB01C114D104E104F10489F00E944D
:101380002D0B0E948C096C1B7D0B683E734090F303
:1013900081E0C81AD108E108F108C851DC4FEACF52
:1013A000DF91CF91FF90EF90DF90CF9008957894E8
:1013B00084B5826084BD84B5816084BD85B582605A
:1013C00085BD85B5816085BDEEE6F0E080818160F8
:1013D0008083E1E8F0E010828081826080838081F8
:1013E00081608083E0E8F0E0808181608083E1EBD0
:1013F000F0E0808184608083E0EBF0E080818160B8
:101400008083EAE7F0E0808184608083808182606D
:101410008083808181608083808180688083109256
:10142000C10008958E3008F08E5087702091100111
:1014300090E4299F90011124822B80937C0080915D
:101440007A00806480937A0080917A0086FDFCCFD8
:10145000809178002091790090E0922B089583305C
:1014600081F028F4813099F08230A1F0089587301E
:10147000A9F08830B9F08430D1F4809180008F7D5C
:1014800003C0809180008F7780938000089584B599
:101490008F7702C084B58F7D84BD08958091B000A0
:1014A0008F7703C08091B0008F7D8093B000089546
:1014B000CF93DF9390E0FC01E958FA4F2491FC01AF
:1014C000E557FA4F8491882349F190E0880F991FDE
:1014D000FC01E755FA4FA591B49181569A4FFC0152
:1014E000C591D4919FB7611108C0F8948C91209553
:1014F00082238C93888182230AC0623051F4F8944D
:101500008C91322F309583238C938881822B888312
:1015100004C0F8948C91822B8C939FBFDF91CF9164
:1015200008950F931F93CF93DF931F92CDB7DEB72C
:10153000282F30E0F901ED59FA4F8491F901E9586B
:10154000FA4F1491F901E557FA4F04910023C9F0BD
:10155000882321F069830E942F0A6981E02FF0E03F
:10156000EE0FFF1FE156FA4FA591B4919FB7F89483
:101570008C91611103C01095812301C0812B8C9344
:101580009FBF0F90DF91CF911F910F9108950E94FF
:10159000470D08950E94D7090E94C90A0E940503B9
:1015A000C0E0D0E00E9482032097E1F30E94000097
:1015B000F9CFCF92DF92EF92FF920F931F93CF93C9
:1015C000DF936C017A01EB01E60EF71E00E010E0FC
:1015D000CE15DF0561F06991D601ED91FC91019086
:1015E000F081E02DC6010995080F191FF1CFC80140
:1015F000DF91CF911F910F91FF90EF90DF90CF90EF
:101600000895009729F0BC0180E090E00C943E0D15
:101610000895CF93DF9300D000D0CDB7DEB79B0104
:10162000AC01611571058105910569F069833A8303
:101630004B835C830E94390D29813A814B815C8107
:101640000E94700B03C060E070E0CB010F900F9020
:101650000F900F90DF91CF9108950895991B79E035
:1016600004C0991F961708F0961B881F7A95C9F732
:101670008095089597FB072E16F4009407D077FD08
:1016800009D00E949A0B07FC05D03EF490958195F5
:101690009F4F0895709561957F4F0895A1E21A2E8E
:1016A000AA1BBB1BFD010DC0AA1FBB1FEE1FFF1F06
:1016B000A217B307E407F50720F0A21BB30BE40B56
:1016C000F50B661F771F881F991F1A9469F760959D
:1016D0007095809590959B01AC01BD01CF01089557
:1016E000052E97FB1EF400940E94870B57FD07D030
:1016F0000E944E0B07FC03D04EF40C94870B5095C0
:101700004095309521953F4F4F4F5F4F08959095ED
:101710008095709561957F4F8F4F9F4F08950E94E0
:10172000B40BA59F900DB49F900DA49F800D911DAB
:1017300011240895AA1BBB1B51E107C0AA1FBB1FA0
:10174000A617B70710F0A61BB70B881F991F5A954D
:10175000A9F780959095BC01CD010895EE0FFF1F6C
:101760000590F491E02D0994A29FB001B39FC001B0
:10177000A39F700D811D1124911DB29F700D811DBD
:101780001124911D0895CF93DF938230910510F4B9
:1017900082E090E0E0919201F091930120E030E04E
:1017A000A0E0B0E0309739F14081518148175907E6
:1017B000B8F04817590771F482819381109729F086
:1017C00013969C938E9312972CC0909393018093C1
:1017D000920127C02115310531F04217530718F047
:1017E000A901DB0101C0EF019A01BD01DF01028007
:1017F000F381E02DD7CF21153105F9F0281B390BE6
:101800002430310580F48A819B816115710521F0B6
:10181000FB019383828304C0909393018093920190
:10182000FE01329644C0FE01E20FF31F81939193B3
:1018300022503109398328833AC020919001309198
:101840009101232B41F42091020130910301309347
:101850009101209390012091000130910101211507
:10186000310541F42DB73EB7409104015091050177
:10187000241B350BE0919001F0919101E217F307E1
:10188000A0F42E1B3F0B2817390778F0AC014E5FF0
:101890005F4F2417350748F04E0F5F1F509391019B
:1018A000409390018193919302C0E0E0F0E0CF017A
:1018B000DF91CF910895CF93DF93009709F487C00C
:1018C000FC01329713821282C0919201D091930150
:1018D000209781F420813181280F391F8091900158
:1018E000909191018217930779F5F0939101E0931C
:1018F00090016DC0DE0120E030E0AE17BF0750F46C
:1019000012964D915C9113979D014115510509F176
:10191000DA01F3CFB383A28340815181840F951FF5
:101920008A179B0771F48D919C911197840F951FD5
:1019300002969183808312968D919C911397938345
:1019400082832115310529F4F0939301E0939201EC
:101950003EC0D9011396FC93EE9312974D915D9181
:10196000A40FB51FEA17FB0779F480819181840FDA
:10197000951F0296D90111969C938E938281938133
:1019800013969C938E931297E0E0F0E08A819B81FE
:10199000009719F0FE01EC01F9CFCE0102962881E3
:1019A0003981820F931F2091900130919101281766
:1019B000390769F4309729F410929301109292013B
:1019C00002C013821282D0939101C0939001DF91E3
:1019D000CF9108958F929F92AF92BF92CF92DF9254
:1019E000EF92FF92CF93DF93EC01688179818A8136
:1019F0009B81611571058105910521F464E279ED02
:101A00008BE597E02DE133EF41E050E00E94700B51
:101A100049015A019B01AC01A7EAB1E40E948F0B76
:101A20006B017C01ACEEB4EFA50194010E94560D50
:101A3000C60ED71EE81EF91EF7FE06C081E0C81AC2
:101A4000D108E10880E8F80AC882D982EA82FB82DC
:101A5000C701B6019F77DF91CF91FF90EF90DF90A4
:101A6000CF90BF90AF909F908F9008950E94EA0C06
:101A7000089586E091E00E94EA0C089560930601C3
:101A8000709307018093080190930901089581E004
:101A900090E0F8940C945B0DDC0101C06D93415013
:101AA0005040E0F70895B7FF0C948F0B0E948F0B06
:0A1AB000821B930B0895F894FFCFFA
:101ABA0000009401800001000000010001000A00FA
:101ACA0001000000008007D90AC70A030509062099
:101ADA0006BA0536066B068906000000008007D99B
:101AEA000ADC07030509062006BA0536067B0889BB
:021AFA000600E4
:00000001FF
