:020000040000FA
:100000000C9468000C9490000C9490000C94900058
:100010000C9490000C9490000C9490000C94900020
:100020000C9490000C9490000C9490000C94900010
:100030000C9490000C9490000C9490000C94900000
:100040000C94E8060C9490000C9458070C9432071A
:100050000C9490000C9490000C9490000C949000E0
:100060000C948A070C94900031313A30383A32348B
:10007000004170722031382032303234001F1C1F92
:100080001E1F1E1F1F1E1F1E00000000250028002F
:100090002B00040404040404040402020202020209
:1000A000030303030303010204081020408001023C
:1000B00004081020010204081020000000080002BB
:1000C0000100000304070000000000000000B60863
:1000D00011241FBECFEFD8E0DEBFCDBF23E0AAE1E1
:1000E000B2E001C01D92AC38B207E1F712E0A0E027
:1000F000B1E0E4EEF0E202C005900D92AA31B10742
:10010000D9F710E0C8E6D0E004C02197FE010E94B4
:10011000450FC736D107C9F70E94EF080C9470103D
:100120000C94000090E0FC01E654FF4F2491FC0188
:10013000EA55FF4F3491FC01EE56FF4FE491EE2358
:10014000C9F0222339F0233001F1A8F4213019F14C
:10015000223029F1F0E0EE0FFF1FE857FF4FA59185
:10016000B4918FB7F894EC91611126C030953E237D
:100170003C938FBF08952730A9F02830C9F0243070
:1001800049F7809180008F7D03C0809180008F7738
:1001900080938000DFCF84B58F7784BDDBCF84B5BB
:1001A0008F7DFBCF8091B0008F778093B000D2CF4E
:1001B0008091B0008F7DF9CF3E2BDACF3FB7F89416
:1001C0008091670290916802A0916902B0916A02E1
:1001D00026B5A89B05C02F3F19F00196A11DB11DA2
:1001E0003FBFBA2FA92F982F8827BC01CD01620FDE
:1001F000711D811D911D42E0660F771F881F991F99
:100200004A95D1F708958F929F92AF92BF92CF9265
:10021000DF92EF92FF924B015C010E94DE006B01C6
:100220007C010E94DE006C197D098E099F09683EE1
:10023000734081059105A8F321E0821A9108A10875
:10024000B10888EEC80E83E0D81EE11CF11C8114B1
:100250009104A104B10429F7FF90EF90DF90CF90B3
:10026000BF90AF909F908F90089508950895AF929A
:10027000BF92CF92DF92EF92FF920F931F93CF9393
:10028000DF936C017B018B01040F151FEB015E01F5
:10029000AE18BF08C017D10759F06991D601ED918A
:1002A000FC910190F081E02DC6010995892B79F729
:1002B000C501DF91CF911F910F91FF90EF90DF90DB
:1002C000CF90BF90AF900895FC01538D448D252FA2
:1002D00030E0842F90E0821B930B541710F0CF96E0
:1002E000089501970895FC01918D828D981761F012
:1002F000A28DAE0FBF2FB11D5D968C91928D9F5F29
:100300009F73928F90E008958FEF9FEF0895FC0107
:10031000918D828D981731F0828DE80FF11D858DBA
:1003200090E008958FEF9FEF0895FC01918D228D4D
:10033000892F90E0805C9F4F821B91098F739927D2
:1003400008958FED92E00E94950121E0892B09F438
:1003500020E0822F089580E090E0892B29F00E9410
:10036000A10181110C9400000895FC01A48DA80F37
:10037000B92FB11DA35ABF4F2C91848D90E00196E7
:100380008F739927848FA689B7892C93A089B18907
:100390008C91837080648C93938D848D981306C0A8
:1003A0000288F389E02D80818F7D80830895EF920C
:1003B000FF920F931F93CF93DF93EC0181E0888F1F
:1003C0009B8D8C8D98131AC0E889F989808185FFEF
:1003D00015C09FB7F894EE89FF896083E889F98991
:1003E00080818370806480839FBF81E090E0DF9193
:1003F000CF911F910F91FF90EF900895F62E0B8DE6
:1004000010E00F5F1F4F0F731127E02E8C8D8E11A0
:100410000CC00FB607FCFACFE889F989808185FF07
:10042000F5CFCE010E94B501F1CFEB8DEC0FFD2F82
:10043000F11DE35AFF4FF0829FB7F8940B8FEA89C2
:10044000FB8980818062CFCF682F8FED92E00C9482
:10045000D701CF93DF93EC01888D8823B9F0AA8967
:10046000BB89E889F9898C9185FD03C0808186FD6F
:100470000DC00FB607FCF7CF8C9185FFF2CF8081BE
:1004800085FFEDCFCE010E94B501E9CFDF91CF917D
:10049000089520913B02260F3327331F2132310567
:1004A000ECF42091B502FC0190E080E0243069F08A
:1004B00082E00895A0913B022191AC01455E5D4F21
:1004C000A40FB52FB11D2C930196861798F3809138
:1004D0003B02680F60933B0280E0089581E008953D
:1004E0001092B50281E08093B40210928F0261E015
:1004F00082E10E94920061E083E10E949200E9EBB8
:10050000F0E080818E7F808380818D7F808388E48E
:100510008093B80085E48093BC000895CF93DF9367
:1005200091E090931A028823B9F0C091B800D0915D
:10053000BA008091BC008A7B8093BC0060E082E1BD
:100540000E94920060E083E10E9492000E9470028B
:10055000D093BA00C093B800DF91CF9108958F92E5
:100560009F92AF92BF92CF92DF92EF92FF920F9342
:100570001F93CF93DF93D091DE02D13208F0D7C022
:10058000182FC091DD020E94DE006B017C0180917A
:10059000B50281116BC082E08093B5021093B40262
:1005A0008FEF8093B3021092B202D093B102ADEB01
:1005B000B2E0E1E9F2E080E0D81391C0109290023D
:1005C00080919002CC0FC82BC093900280918F0233
:1005D000813009F088C010928F020E94DE006B010A
:1005E0007C01809190028093BB008091B702909132
:1005F000B802A091B902B091BA02892B8A2B8B2B39
:10060000A1F00E94DE000091B7021091B802209183
:10061000B9023091BA026C197D098E099F0906173B
:1006200017072807390708F442C08091BC0083FDF2
:10063000D8CF85EC8093BC000E94DE006B017C016A
:100640008091B502823009F450C08091B3028F3F8F
:1006500009F46FC08091B302803209F46CC08091BC
:10066000B302803309F469C084E026C08091B702E8
:100670009091B802A091B902B091BA02892B8A2B4D
:100680008B2B09F484CF0E94DE008090B7029090FB
:10069000B802A090B902B090BA026C197D098E0917
:1006A0009F0986169706A806B90608F070CF8091B4
:1006B000B6020E948E0285E01092BC021092DE0209
:1006C0001092BB02DF91CF911F910F91FF90EF909D
:1006D000DF90CF90BF90AF909F908F9008959D91A5
:1006E00091938F5F69CF85EEA5CF8091B7029091EE
:1006F000B802A091B902B091BA02892B8A2B8B2B38
:1007000009F49ECF0E94DE000091B7021091B8025A
:100710002091B9023091BA026C197D098E099F09A6
:10072000061717072807390708F08ACFC0CF81E0DE
:10073000C3CF80E0C1CF82E0BFCF83E0BDCF0895BB
:10074000E0916E0280916D02E81730F4F0E0E1591B
:10075000FD4F808190E008958FEF9FEF0895909175
:100760006E0280916D022FEF3FEF981748F4E92F4A
:10077000F0E0E159FD4F208130E09F5F90936E02E1
:10078000C901089580916D0290916E02891B990BA9
:100790000895CF92DF92EF92FF920F931F93CF9322
:1007A000DF937C01CB018A012091BB02222389F0D7
:1007B000EB016B01C40ED51ECC15DD0569F0699106
:1007C000D701ED91FC910190F081E02DC7010995D1
:1007D000F3CF642F0E944902C801DF91CF911F918E
:1007E0000F91FF90EF90DF90CF900895CF93DF931C
:1007F0001F92CDB7DEB769832091BB022223F9F0A7
:100800002091DE02203258F021E030E0FC013383F9
:10081000228390E080E00F90DF91CF910895809146
:10082000BC02E82FF0E0E354FD4F998190838F5F85
:100830008093BC028093DE0281E090E0ECCF61E027
:10084000CE0101960E944902F7CF90E080E0089522
:10085000CF93DF93EC018B818823A1F0888191E015
:100860009093BB028093DD021092BC021092DE02D4
:1008700081E00E94AF0291E0811190E0892FDF9129
:10088000CF91089510926E0210926D021092BC02E8
:100890001092DE020E94700285E391E09093610263
:1008A0008093600286E391E090935F0280935E0202
:1008B00081E08B83CE010E942804982F8111CECF36
:1008C000DDCFDC0150E0EDE7F0E081E0861730F4A9
:1008D0009491490F511D8F5F3196F8CF633038F0F6
:1008E000CD0183709927892B11F44F5F5F4F9D01D4
:1008F0002D5F3F4F36952795369527956DE671E02C
:10090000A69FC001A79F900DB69F900D112401973F
:10091000820F931F840F951F0895EF92FF920F93FC
:100920001F93CF93DF93EC0188814A81698190E026
:100930000E9461049C01A8E1B0E00E944E0E2B8150
:100940007B018C01E20EF11C011D111DA801970114
:10095000ACE3B0E00E94430E2C817B018C01E20EDF
:10096000F11C011D111DA80197010E94430EAB014E
:10097000BC019D81892F90E0B0E0A0E080589C4BA5
:10098000A249B74C8A019B01080F191F2A1F3B1F60
:10099000C901B801DF91CF911F910F91FF90EF90A6
:1009A0000895FC0101900020E9F73197AF01481B41
:1009B000590BBC018FED92E00C9437018F929F92FE
:1009C000AF92BF920F931F93CF93DF93CDB7DEB754
:1009D000A1970FB6F894DEBF0FBECDBF19A242306B
:1009E00008F44AE08E010F5D1F4F842E912CB12C2C
:1009F000A12CA50194010E94230FE62FB901CA0181
:100A0000EA30F4F4E05DD801EE938D01232B242B22
:100A1000252B79F790E080E0109719F0CD010E9426
:100A2000D104A1960FB6F894DEBF0FBECDBFDF9103
:100A3000CF911F910F91BF90AF909F908F9008958D
:100A4000E95CE1CFCF93DF930E94D104EC018EE704
:100A500091E00E94D1048C0F9D1FDF91CF910895EA
:100A60001F93CF93DF93DC011496ED91FC91E41773
:100A7000F50710F490E01FC0122FEA01FC018181FC
:100A80009281208131E03093BB022093DD021092ED
:100A9000BC021092DE02DC01ED91FC910280F38138
:100AA000E02D0995C817D90729F7812F0E94AF02B9
:100AB00091E08111DFCF892FDF91CF911F910895B0
:100AC0002F923F924F925F926F927F928F929F925E
:100AD000AF92BF92CF92DF92EF92FF920F931F934C
:100AE000CF93DF935C011B016A01F12CE12CD5014E
:100AF00014968D919C9186010E191F0980179107FC
:100B000008F48C01F501D0810E94DE002B013C012C
:100B10008091B502811172C0C02F013208F0C0E28D
:100B2000F1E0F093B50221E0C601801B910BE816BD
:100B3000F90608F420E02093B4028FEF8093B3020B
:100B40001092B2028C0F8093B102A1E0A0939002A8
:100B500080919002DD0FD82BD093900280918F026C
:100B6000813009F090C010928F020E94DE002B01AC
:100B70003C01809190028093BB008091B7029091DC
:100B8000B802A091B902B091BA02892B8A2B8B2BA3
:100B9000A1F00E94DE002091B7023091B80240918E
:100BA000B9025091BA026419750986099709261786
:100BB00037074807590708F442C08091BC0083FDFD
:100BC000D8CFB5ECB093BC000E94DE002B013C01F5
:100BD0008091B502813009F45AC08091B2028C171D
:100BE00010F4C091B202A1E9B2E0EFE6F2E080E0D9
:100BF0008C1751F19D9191938F5FFACF8091B7023D
:100C00009091B802A091B902B091BA02892B8A2BB7
:100C10008B2B09F47DCF0E94DE002091B70230912A
:100C2000B8024091B9025091BA0264197509860957
:100C30009709261737074807590708F069CF8091A9
:100C4000B6020E948E02C0E010926E02C0936D0246
:100C5000C017110609F057C041018E0C9F1CE4011A
:100C6000CE01881999098017910798F5D501119639
:100C70008D919C91DC01ED91FC910284F385E02D36
:100C800009958993EDCFE5EEE093BC009DCF80916F
:100C9000B7029091B802A091B902B091BA02892B23
:100CA0008A2B8B2B09F494CF0E94DE002091B7028F
:100CB0003091B8024091B9025091BA026419750995
:100CC00086099709261737074807590708F080CF84
:100CD000B6CFE00EF11EEC14FD0408F408CF81E05D
:100CE000DF91CF911F910F91FF90EF90DF90CF9008
:100CF000BF90AF909F908F907F906F905F904F903C
:100D00003F902F90089580E0EBCFCF93DF9300D0FA
:100D1000CDB7DEB78FE08A8321E041E050E0BE012D
:100D20006E5F7F4F80916B0290916C020E94300544
:100D300041E050E0BE016F5F7F4F80916B02909168
:100D40006C020E94600589810F900F90DF91CF9116
:100D50000895682F70E090E080E04AE00C94DE0493
:100D600085ED8093BC008091B7029091B802A0916C
:100D7000B902B091BA020796A11DB11D23E0B69544
:100D8000A795979587952A95D1F72091BC0024FDCA
:100D900003C01092B50208954091B7025091B80275
:100DA0006091B9027091BA02452B462B472B69F32B
:100DB0000097A105B10541F02AE22A95F1F700C09C
:100DC0000197A109B109E1CF8091B6020C948E027E
:100DD0001F920F920FB60F9211242F933F938F9370
:100DE0009F93AF93BF938091630290916402A0910F
:100DF0006502B09166023091620223E0230F2D3725
:100E000058F50196A11DB11D2093620280936302E3
:100E100090936402A0936502B0936602809167028A
:100E200090916802A0916902B0916A020196A11D99
:100E3000B11D8093670290936802A0936902B093FA
:100E40006A02BF91AF919F918F913F912F910F9027
:100E50000FBE0F901F90189526E8230F0296A11D34
:100E6000B11DD2CF1F920F920FB60F9211242F9364
:100E70003F934F935F936F937F938F939F93AF9322
:100E8000BF93EF93FF938FED92E00E94B501FF9126
:100E9000EF91BF91AF919F918F917F916F915F91F2
:100EA0004F913F912F910F900FBE0F901F9018956B
:100EB0001F920F920FB60F9211242F938F939F932F
:100EC000EF93FF93E091EF02F091F0028081E091C7
:100ED000F502F091F60282FD1BC090818091F8022C
:100EE0008F5F8F732091F902821741F0E091F80231
:100EF000F0E0E152FD4F958F8093F802FF91EF9162
:100F00009F918F912F910F900FBE0F901F9018956A
:100F10008081F4CF1F920F920FB60F9211242F935E
:100F20003F934F935F936F937F938F939F93AF9371
:100F3000BF93EF93FF938091B900887F803609F4C7
:100F40004AC0F0F5883209F4A7C018F5803109F4D9
:100F50009BC0B8F4882309F4F9C0883009F494C020
:100F6000FF91EF91BF91AF919F918F917F916F9181
:100F70005F914F913F912F910F900FBE0F901F9057
:100F80001895883109F488C0803251F78093B302F4
:100F900014C0803409F49DC040F48033B9F3883321
:100FA000F9F68093B30285ECB0C0803509F485C0B2
:100FB000883509F496C0883499F60E94B006D0CFDF
:100FC000883909F48CC038F5883729F050F4883610
:100FD00011F0803729F683E08093B50210925D020C
:100FE00057C0883809F47BC0803919F0803809F07F
:100FF000B7CF80915D02803208F071C0E0915D0250
:1010000081E08E0F80935D028091BB00F0E0E35C95
:10101000FD4F80833DC0803B39F0E0F4803A09F415
:1010200079C0883A09F09CCF84E08093B502109291
:101030003C0210923B02E0916002F091610209953E
:1010400080913B0281110FC081E080933B0210929E
:101050001B0209C0803C09F4A6CF883C09F4A3CF49
:10106000883B09F07DCFE0913C0281E08E0F8093B8
:101070003C02F0E0E55EFD4F80818093BB009091E3
:101080003C0280913B0229C0809190028093BB007A
:1010900085EC8093BC0064CF9091B2028091B10244
:1010A000981758F5E091B20281E08E0F8093B2025A
:1010B000F0E0EF56FD4F8081E9CFE091B20281E090
:1010C0008E0F8093B2028091BB00F0E0EF56FD4F8F
:1010D00080839091B2028091B1029817C8F285E89E
:1010E000D8CFE091B20281E08E0F8093B20280915E
:1010F000BB00F0E0EF56FD4F80838091B402811178
:101100005CCF81E080938F0284EA8093BC001092D0
:10111000B50226CF85EC8093BC001092B502809179
:101120005D02803230F4E0915D02F0E0E35CFD4F5F
:10113000108260915D0270E0E0915E02F0915F02CA
:101140008DE392E0099510925D020ACF1092B302EE
:1011500034CFFC01908190539A3008F090E0818167
:1011600080532AE0929F800D11240895EFEDF2E064
:101170001382128288EE93E0A0E0B0E0848395832E
:10118000A683B7832EE531E03183208325EC30E060
:101190003587248724EC30E03787268720EC30E041
:1011A000318B208B21EC30E0338B228B22EC30E032
:1011B000358B248B26EC30E0378B268B118E128EEC
:1011C000138E148EECE7F3E01382128284839583EE
:1011D000A683B78380E791E0918380830895CF93BE
:1011E000DF93CDB7DEB761970FB6F894DEBF0FBEC1
:1011F000CDBF789484B5826084BD84B5816084BDA0
:1012000085B5826085BD85B5816085BD80916E00A4
:10121000816080936E0010928100809181008260D5
:101220008093810080918100816080938100809112
:1012300080008160809380008091B1008460809301
:10124000B1008091B00081608093B00080917A00FD
:10125000846080937A0080917A00826080937A0023
:1012600080917A00816080937A0080917A00806812
:1012700080937A001092C100E091EF02F091F002A9
:1012800082E08083E091EF02F091F0021082E09121
:10129000EB02F091EC021082E091ED02F091EE028F
:1012A00080E180831092F702E091F302F091F40262
:1012B00086E08083E091F102F091F202808180610A
:1012C0008083E091F102F091F20280818860808356
:1012D000E091F102F091F202808180688083E091D8
:1012E000F102F091F20280818F7D808380916B0208
:1012F00090916C02009711F00E94E70F86E090E059
:101300000E944B0F8C0188E6F80180838CE793E004
:1013100092838183138280E290E09583848310938B
:101320006C0200936B0210926E0210926D0210928A
:10133000BC021092DE020E94700285E391E090935D
:1013400061028093600286E391E090935F02809354
:101350005E0281E0F8018383C8010E9428048111A4
:101360000FC081E891E00E9422058FED92E00E947B
:1013700029026AE070E080E090E00E940301F9CF6A
:101380000E94850690E0880F892F881F990B8E0197
:101390000F5F1F4F892B09F4BEC083E991E00E94C3
:1013A00022054BE050E061E770E0C8010E94160D95
:1013B000CE010A960E94A908E82EE981E154E331A2
:1013C00030F50E2E000CFF0BE851F64F0C94450F34
:1013D000CA0B070A070AE50B070AE80B070A070A00
:1013E000070AFB09070A070AD30BE20BDF0B070A00
:1013F000070A070ADC0B8A81FF24F394813639F04F
:101400008B8126E0F22E8E3611F097E0F92ECE0178
:1014100005960E94A908D82E48E050E068E670E0E2
:10142000C8010E94160DC8010E94A908C82ECE014D
:1014300004960E94A908B82ECE0107960E94A9081A
:10144000382F88E0F80111928A95E9F72AE0832F76
:10145000622F0E94030F982F880F890F880F830F28
:101460008A838B2D0E94030F982F880F890F880F76
:101470008B0D8B838C2D0E94030F982F880F890F63
:10148000880F8C0D8C834D2D6F2D8E2D90E00E943A
:101490006104069667E070E00E940F0F811101C0A1
:1014A00087E08D832AE08D2D622F0E94030F982FF5
:1014B000880F890F880F8D0D8E838F2D0E94030F4B
:1014C000982F990F890F880FF80EFF828E2D0E949A
:1014D000030F982F880F890F880F8E0D888721E0C2
:1014E00048E050E0B80180916B0290916C020E943C
:1014F00030050E9485069FE09C878F778D8721E0CD
:1015000042E050E0BE01645F7F4F80916B0290919A
:101510006C020E94300530E0232E30E0332E198219
:10152000E0906B02F0906C0220E041E050E0B801E6
:10153000C7010E943005882331F047E050E0B80130
:10154000C7010E94600549814F775A817B81ED81F7
:101550002E812F773F81832F90E064E095958795CA
:101560006A95E1F7982F990F990F682F691B660FFD
:10157000630F6C87822F90E0F4E095958795FA953C
:10158000E1F7982F990F990F891B880F820F8D878C
:101590002E2F30E0A4E035952795AA95E1F7822F0C
:1015A000880F880F281B220F2E0F2E87872F90E081
:1015B000B4E095958795BA95E1F7982F990F990F13
:1015C000891B880F870F8F87252F30E084E03595A2
:1015D00027958A95E1F7822F880F880F281B220F05
:1015E000250F288B842F90E024E0959587952A95E8
:1015F000E1F7982F990F990F891B880F840F898B1A
:1016000070E06053784F90E080E04AE00E94DE0492
:101610008FE20E9424028D850E94A9068FE20E941B
:1016200024028E850E94A90687EB91E00E94D104D6
:101630008C854E856D8590E00E946104069667E07A
:1016400070E00E940F0FFCE0F89F9001F99F300DB1
:101650001124C90180509F4F0E94D1048AEB91E070
:101660000E94D1048F850E94A9068AE30E94240269
:1016700088890E94A9068AE30E94240289890E941F
:10168000A9068EE791E00E94D1048DEB91E00E94C3
:10169000D104CE010C960E948D044AE00E94DE0423
:1016A00089ED91E00E94D104CE010C960E948D0438
:1016B00020E831E541E050E00E94230FCA01B90162
:1016C0004AE00E94DE048EED91E00E942205CE01E8
:1016D0000C960E948D046B017C0122E3C21A29E55D
:1016E000D20A23E6E20A28E3F20AC701B6012CE394
:1016F00030E040E050E00E94230FB62ECA01B9014D
:101700002CE330E040E050E00E94230FA62EC701FA
:10171000B60120E13EE040E050E00E94230FCA0104
:10172000B90128E130E040E050E00E94230F962EFE
:10173000C701B60120E831E541E050E00E94230FE7
:101740006901F12C2F2D237081E090E011F090E0E1
:1017500080E031E03F0DAC0143595E4FC416D50621
:10176000D0F5EDE7F0E0EE24E3945CE0E516D9F186
:101770008491211104C092E0E91201C08F5F90E0D2
:1017800031E03E0D3196C816D90668F1C81AD90A5B
:10179000E32EEBCF8B81B8E0FB2E823709F037CEFA
:1017A00084E0F82E34CE8B81A3E0FA2E823709F440
:1017B0002ECEF5E0FF2E2BCEE9E0FE2E28CE7AE0ED
:1017C000F72E25CE6BE0F62E22CE5CE0F52E1FCE56
:1017D00042E0F42E1CCE43E95EEF481B590BC40EC9
:1017E000D51EF32EAFCF80EE91E00E94D1046F2D75
:1017F00070E06053784F90E080E04AE00E94DE04A1
:101800008FE20E9424028E2D0E94A9068FE20E9480
:10181000240281E08C0D0E94A90680E20E9424022D
:10182000892D0E94A9068AE30E9424028A2D0E9423
:10183000A9068AE30E9424028B2D0E94A9068EE746
:1018400091E00E94D1048DEF91E00E94D104E1E18A
:10185000E9831A82E0906B02F0906C0220E041E094
:1018600050E0B801C7010E943005882331F042E002
:1018700050E0B801C7010E9460056A8170E086E00F
:10188000759567958A95E1F7072E000C880B990BE3
:101890000E94260D20E030E040E85EE30E94850DC6
:1018A0006B017C01698170E090E080E00E94240D72
:1018B0009B01AC01C701B6010E945E0E6B017C0169
:1018C0004B015C01AC019B010E94FE0E8823F1F0EC
:1018D0008BE092E00E94D10487E192E00E94220511
:1018E0008EE791E00E94D10468EB7BE080E090E01D
:1018F0000E9403012114310409F411CE0E94A101B8
:10190000882309F40CCE0E94000009CE260137017D
:10191000E89477F82FEF3FEF4FE75FE7C301B2019D
:101920000E94FE0E81110DC02FEF3FEF4FE75FE7E2
:10193000C301B2010E941F0D18161CF48FE092E043
:10194000C9CF2FEF3FEF4FE75FE4C701B6010E9419
:10195000F90E18161CF483E192E0BCCF2FEF3FEF95
:101960004FE75FECC701B6010E941F0D87FDF3CF63
:1019700020E030E0A901C701B6010E941F0D87FFDA
:1019800009C08DE20E94240246015701B7FAB094C3
:10199000B7F8B0942AE037ED43EA5BE3C501B40140
:1019A0000E945E0E4B015C010E94CA0E6B017C011D
:1019B0000E94240D9B01AC01C501B4010E945D0E83
:1019C0004B015C014AE0C701B6010E94DE048EE2D1
:1019D0000E94240220E030E040E251E4C501B4015D
:1019E0000E94850D4B015C010E94CA0E6B01F12C17
:1019F000E12C4AE0C701B6010E94DE04C701B6012E
:101A00000E94240D9B01AC01C501B4010E945D0E32
:101A100020E030E040E251E40E94850D0E94CA0EB1
:101A200090E080E04AE00E94DE0456CFFB01DC013A
:101A300002C005900D9241505040D8F708950E9481
:101A4000610D08F481E00895E89409C097FB3EF425
:101A500090958095709561957F4F8F4F9F4F9923FB
:101A6000A9F0F92F96E9BB279395F6958795779579
:101A70006795B795F111F8CFFAF4BB0F11F460FF39
:101A80001BC06F5F7F4F8F4F9F4F16C0882311F091
:101A900096E911C0772321F09EE8872F762F05C0A5
:101AA000662371F096E8862F70E060E02AF09A9540
:101AB000660F771F881FDAF7880F9695879597F935
:101AC0000895990F0008550FAA0BE0E8FEEF1616CF
:101AD0001706E807F907C0F012161306E407F50722
:101AE00098F0621B730B840B950B39F40A2661F096
:101AF000232B242B252B21F408950A2609F4A14039
:101B0000A6958FEF811D811D08950E94980D0C945C
:101B1000090E0E94FB0D38F00E94020E20F0952362
:101B200011F00C94F20D0C94F80D11240C943D0E50
:101B30000E941A0E70F3959FC1F3950F50E0551F48
:101B4000629FF001729FBB27F00DB11D639FAA2712
:101B5000F00DB11DAA1F649F6627B00DA11D661F61
:101B6000829F2227B00DA11D621F739FB00DA11D82
:101B7000621F839FA00D611D221F749F3327A00D3C
:101B8000611D231F849F600D211D822F762F6A2FD8
:101B900011249F5750409AF0F1F088234AF0EE0F3D
:101BA000FF1FBB1F661F771F881F91505040A9F76A
:101BB0009E3F510580F00C94F20D0C943D0E5F3F5A
:101BC000E4F3983ED4F3869577956795B795F795A6
:101BD000E7959F5FC1F7FE2B880F911D969587951E
:101BE00097F9089597F99F6780E870E060E008959D
:101BF0009FEF80EC089500240A9416161706180625
:101C00000906089500240A94121613061406050600
:101C10000895092E0394000C11F4882352F0BB0F91
:101C200040F4BF2B11F460FF04C06F5F7F4F8F4FF4
:101C30009F4F089557FD9058440F551F59F05F3F2F
:101C400071F04795880F97FB991F61F09F3F79F0DE
:101C500087950895121613061406551FF2CF469560
:101C6000F1DF08C0161617061806991FF1CF8695E2
:101C70007105610508940895E894BB2766277727C6
:101C8000CB0197F908950E944E0EA59F900DB49F29
:101C9000900DA49F800D911D11240895A29FB00165
:101CA000B39FC001A39F700D811D1124911DB29F90
:101CB000700D811D1124911D08955058BB27AA272E
:101CC0000E94750E0C94090E0E94FB0D38F00E94C4
:101CD000020E20F039F49F3F19F426F40C94F80D0D
:101CE0000EF4E095E7FB0C94F20DE92F0E941A0E1A
:101CF00058F3BA17620773078407950720F079F441
:101D0000A6F50C943C0E0EF4E0950B2EBA2FA02DE8
:101D10000B01B90190010C01CA01A0011124FF2798
:101D2000591B99F0593F50F4503E68F11A16F04093
:101D3000A22F232F342F4427585FF3CF4695379592
:101D40002795A795F0405395C9F77EF41F16BA0B57
:101D5000620B730B840BBAF09150A1F0FF0FBB1F05
:101D6000661F771F881FC2F70EC0BA0F621F731F4E
:101D7000841F48F4879577956795B795F7959E3FAB
:101D800008F0B0CF9395880F08F09927EE0F97953C
:101D9000879508950E94220E88F09F5798F0B92FDA
:101DA0009927B751B0F0E1F0660F771F881F991F90
:101DB0001AF0BA95C9F714C0B13091F00E943C0EE8
:101DC000B1E008950C943C0E672F782F8827B85FF8
:101DD00039F0B93FCCF3869577956795B395D9F7E8
:101DE0003EF490958095709561957F4F8F4F9F4FF2
:101DF00008950E94610D08F48FEF08950E94610D0F
:101E0000880B990B0895991B79E004C0991F9617C8
:101E100008F0961B881F7A95C9F780950895AA1B2C
:101E2000BB1B51E107C0AA1FBB1FA617B70710F0C5
:101E3000A61BB70B881F991F5A95A9F780959095F7
:101E4000BC01CD010895A1E21A2EAA1BBB1BFD0106
:101E50000DC0AA1FBB1FEE1FFF1FA217B307E40789
:101E6000F50720F0A21BB30BE40BF50B661F771FE1
:101E7000881F991F1A9469F76095709580959095C1
:101E80009B01AC01BD01CF010895EE0FFF1F05902E
:101E9000F491E02D09940F931F93CF93DF93823039
:101EA000910510F482E090E0E0918A03F0918B03B9
:101EB00030E020E0B0E0A0E0309799F42115310542
:101EC00009F44AC0281B390B24303105D8F58A8122
:101ED0009B816115710589F1FB0193838283FE016A
:101EE00011C0408151810281138148175907E0F0E8
:101EF0004817590799F4109761F012960C931297AE
:101F000013961C933296CF01DF91CF911F910F91C1
:101F1000089500938A0310938B03F4CF21153105A4
:101F200051F04217530738F0A901DB019A01BD01B6
:101F3000DF01F801C1CFEF01F9CF90938B038093BC
:101F40008A03CDCFFE01E20FF31F819391932250BC
:101F5000310939832883D7CF2091880330918903B1
:101F6000232B41F42091560130915701309389037E
:101F7000209388032091540130915501211531059A
:101F800041F42DB73EB74091580150915901241B9F
:101F9000350BE0918803F0918903E217F307A0F471
:101FA0002E1B3F0B2817390778F0AC014E5F5F4FAF
:101FB0002417350748F04E0F5F1F50938903409355
:101FC0008803819391939FCFF0E0E0E09CCFCF9383
:101FD000DF930097E9F0FC01329713821282A091FF
:101FE0008A03B0918B03ED0130E020E01097A1F45B
:101FF00020813181820F931F2091880330918903C2
:102000002817390709F061C0F0938903E09388032A
:10201000DF91CF910895EA01CE17DF07E8F54A81F5
:102020005B819E0141155105B1F7E901FB83EA830C
:1020300049915991C40FD51FEC17FD0761F48081B8
:1020400091810296840F951FE9019983888382818B
:1020500093819B838A83F0E0E0E012968D919C91BE
:1020600013970097B9F52D913C911197CD010296E8
:10207000820F931F20918803309189032817390715
:1020800039F6309751F510928B0310928A03B09372
:102090008903A0938803BCCFD383C283408151813D
:1020A000840F951FC817D90761F44E5F5F4F888171
:1020B0009981480F591F518340838A819B81938363
:1020C00082832115310509F0B0CFF0938B03E093A3
:1020D0008A039ECFFD01DC01C0CF13821282D7CFCD
:1020E000F894FFCF53756E64617900000000000022
:1020F0004D6F6E64617900000000000054756573D7
:1021000064617900000000005765646E6573646166
:1021100079000000546875727364617900000000F2
:1021200046726964617900000000000053617475B3
:10213000726461790000000000008C0380000000E0
:102140000000D7013701640129029501730187015D
:1021500000000000F603C90325049F03C203AF0378
:10216000A0030D0A00436F756C646E2774206669C6
:102170006E642052544300525443206C6F73742099
:10218000706F7765722C206C65742773207365748B
:10219000207468652074696D65210020280029205D
:1021A000002073696E6365206D69646E6967687489
:1021B00020312F312F31393730203D200073203D21
:1021C00020006400206E6F77202B203764202B20A6
:1021D000313268202B2033306D202B2036733A208B
:1021E0000054656D70657261747572653A20006E99
:0E21F000616E00696E66006F76660020430027
:107E0000112484B714BE81FFF0D085E080938100F7
:107E100082E08093C00088E18093C10086E0809377
:107E2000C20080E18093C4008EE0C9D0259A86E02C
:107E300020E33CEF91E0309385002093840096BBD3
:107E4000B09BFECF1D9AA8958150A9F7CC24DD24C4
:107E500088248394B5E0AB2EA1E19A2EF3E0BF2EE7
:107E6000A2D0813461F49FD0082FAFD0023811F036
:107E7000013811F484E001C083E08DD089C08234E0
:107E800011F484E103C0853419F485E0A6D080C0E4
:107E9000853579F488D0E82EFF2485D0082F10E0AE
:107EA000102F00270E291F29000F111F8ED06801E7
:107EB0006FC0863521F484E090D080E0DECF843638
:107EC00009F040C070D06FD0082F6DD080E0C81688
:107ED00080E7D80618F4F601B7BEE895C0E0D1E017
:107EE00062D089930C17E1F7F0E0CF16F0E7DF06D8
:107EF00018F0F601B7BEE89568D007B600FCFDCFD4
:107F0000A601A0E0B1E02C9130E011968C91119780
:107F100090E0982F8827822B932B1296FA010C0160
:107F200087BEE89511244E5F5F4FF1E0A038BF0790
:107F300051F7F601A7BEE89507B600FCFDCF97BE46
:107F4000E89526C08437B1F42ED02DD0F82E2BD052
:107F50003CD0F601EF2C8F010F5F1F4F84911BD097
:107F6000EA94F801C1F70894C11CD11CFA94CF0C13
:107F7000D11C0EC0853739F428D08EE10CD085E9AC
:107F80000AD08FE07ACF813511F488E018D01DD067
:107F900080E101D065CF982F8091C00085FFFCCF94
:107FA0009093C60008958091C00087FFFCCF809118
:107FB000C00084FD01C0A8958091C6000895E0E648
:107FC000F0E098E1908380830895EDDF803219F02E
:107FD00088E0F5DFFFCF84E1DECF1F93182FE3DFCA
:107FE0001150E9F7F2DF1F91089580E0E8DFEE27F6
:047FF000FF270994CA
:027FFE00040479
:00000001FF
